01240120240120180803000000134475955000117FIDC MEZZO                              00230368011000190MEZZO_INVESTIMENTOS                     AA213000001000000037922200145700  00000000                                        0646000019663787000108SALUPLAN_ADMINISTRADORA                                                                                                                                                             01                                                                                                               RE00     000001
1OCT00V520181126CS00013060201218250120000056946604400000000000000204251333000144Comunidade_Cancao_Nova                  Avenida_Cancao_Nova_S/N                 126300000000000000040676146000000000000000000000000406761460014570000                            000000000000000000000000000000000000000000                     00000000000000000000000000000000000000000000000000000000000000000000000000000000000000000000000000000000000000000000                   12V520181126AA300000000000000000000000000000000000000000000000                   00000000000002
1OCT00V520181126CS00014060201218250220000056946604400000000000000204251333000144Comunidade_Cancao_Nova                  Avenida_Cancao_Nova_S/N                 126300000000000000040676146000000000000000000000000402393800014570000                            000000000000000000000000000000000000000000                     00000000000000000000000000000000000000000000000000000000000000000000000000000000000000000000000000000000000000000000                   13V520181126AA300000000000000000000000000000000000000000000000                   00000000000003
1OCT00V520181126CS00015060201218250320000056946604400000000000000204251333000144Comunidade_Cancao_Nova                  Avenida_Cancao_Nova_S/N                 126300000000000000040676146000000000000000000000000397858210014570000                            000000000000000000000000000000000000000000                     00000000000000000000000000000000000000000000000000000000000000000000000000000000000000000000000000000000000000000000                   14V520181126AA300000000000000000000000000000000000000000000000                   00000000000004
1OCT00V520181126CS00016060201218250420000056946604400000000000000204251333000144Comunidade_Cancao_Nova                  Avenida_Cancao_Nova_S/N                 126300000000000000040676146000000000000000000000000393586150014570000                            000000000000000000000000000000000000000000                     00000000000000000000000000000000000000000000000000000000000000000000000000000000000000000000000000000000000000000000                   15V520181126AA300000000000000000000000000000000000000000000000                   00000000000005
1OCT00V520181126CS00017060201218250520000056946604400000000000000204251333000144Comunidade_Cancao_Nova                  Avenida_Cancao_Nova_S/N                 126300000000000000040676146000000000000000000000000389359950014570000                            000000000000000000000000000000000000000000                     00000000000000000000000000000000000000000000000000000000000000000000000000000000000000000000000000000000000000000000                   16V520181126AA300000000000000000000000000000000000000000000000                   00000000000006
1OCT00V520181126CS00018060201218250620000056946604400000000000000204251333000144Comunidade_Cancao_Nova                  Avenida_Cancao_Nova_S/N                 126300000000000000040676146000000000000000000000000384763530014570000                            000000000000000000000000000000000000000000                     00000000000000000000000000000000000000000000000000000000000000000000000000000000000000000000000000000000000000000000                   17V520181126AA300000000000000000000000000000000000000000000000                   00000000000007
1OCT00V520181126CS00019060201218250720000056946604400000000000000204251333000144Comunidade_Cancao_Nova                  Avenida_Cancao_Nova_S/N                 126300000000000000040676146000000000000000000000000380426670014570000                            000000000000000000000000000000000000000000                     00000000000000000000000000000000000000000000000000000000000000000000000000000000000000000000000000000000000000000000                   18V520181126AA300000000000000000000000000000000000000000000000                   00000000000008
1OCT00V520181126CS00020060201218250820000056946604400000000000000204251333000144Comunidade_Cancao_Nova                  Avenida_Cancao_Nova_S/N                 126300000000000000040676146000000000000000000000000375935710014570000                            000000000000000000000000000000000000000000                     00000000000000000000000000000000000000000000000000000000000000000000000000000000000000000000000000000000000000000000                   19V520181126AA300000000000000000000000000000000000000000000000                   00000000000009
1OCT00V520181126CS00021060201218250920000056946604400000000000000204251333000144Comunidade_Cancao_Nova                  Avenida_Cancao_Nova_S/N                 126300000000000000040676146000000000000000000000000371497760014570000                            000000000000000000000000000000000000000000                     00000000000000000000000000000000000000000000000000000000000000000000000000000000000000000000000000000000000000000000                   20V520181126AA300000000000000000000000000000000000000000000000                   00000000000010
1OCT00V520181126CS00022060201218251020000056946604400000000000000204251333000144Comunidade_Cancao_Nova                  Avenida_Cancao_Nova_S/N                 126300000000000000040676146000000000000000000000000367707180014570000                            000000000000000000000000000000000000000000                     00000000000000000000000000000000000000000000000000000000000000000000000000000000000000000000000000000000000000000000                   21V520181126AA300000000000000000000000000000000000000000000000                   00000000000011
1OCT00V520181126CS00023060201218251120000056946604400000000000000204251333000144Comunidade_Cancao_Nova                  Avenida_Cancao_Nova_S/N                 126300000000000000040676146000000000000000000000000363366370014570000                            000000000000000000000000000000000000000000                     00000000000000000000000000000000000000000000000000000000000000000000000000000000000000000000000000000000000000000000                   22V520181126AA300000000000000000000000000000000000000000000000                   00000000000012
1OCT00V520181126CS00024060201218251220000056946604400000000000000204251333000144Comunidade_Cancao_Nova                  Avenida_Cancao_Nova_S/N                 126300000000000000040676146000000000000000000000000359270690014570000                            000000000000000000000000000000000000000000                     00000000000000000000000000000000000000000000000000000000000000000000000000000000000000000000000000000000000000000000                   23V520181126AA300000000000000000000000000000000000000000000000                   00000000000013
1OCT00V520181126CS00025060201218250121000056946604400000000000000204251333000144Comunidade_Cancao_Nova                  Avenida_Cancao_Nova_S/N                 126300000000000000040676146000000000000000000000000355412960014570000                            000000000000000000000000000000000000000000                     00000000000000000000000000000000000000000000000000000000000000000000000000000000000000000000000000000000000000000000                   24V520181126AA300000000000000000000000000000000000000000000000                   00000000000014
1OCT00V520181126CS00026060201218250221000056946604400000000000000204251333000144Comunidade_Cancao_Nova                  Avenida_Cancao_Nova_S/N                 126300000000000000040676146000000000000000000000000351406920014570000                            000000000000000000000000000000000000000000                     00000000000000000000000000000000000000000000000000000000000000000000000000000000000000000000000000000000000000000000                   25V520181126AA300000000000000000000000000000000000000000000000                   00000000000015
20000569466044                                                                                                                                                                                                                                                                                                                                                                                                                                                                                                                                                  000016
